{
  "contractName": "HelloWorld",
  "abi": [
    {
      "constant": false,
      "inputs": [],
      "name": "SayHello",
      "outputs": [
        {
          "name": "",
          "type": "string"
        }
      ],
      "payable": false,
      "stateMutability": "nonpayable",
      "type": "function"
    }
  ],
  "bytecode": "0x608060405234801561001057600080fd5b50610114806100206000396000f3fe6080604052348015600f57600080fd5b506004361060285760003560e01c80633acb315014602d575b600080fd5b603360ab565b6040518080602001828103825283818151815260200191508051906020019080838360005b8381101560715780820151818401526020810190506058565b50505050905090810190601f168015609d5780820380516001836020036101000a031916815260200191505b509250505060405180910390f35b60606040518060400160405280601e81526020017f48656c6c6f20576f726c6421204d7920666972737420636f6e7472616374000081525090509056fea165627a7a7230582058a38ab37ab918866382cd0b5630b5928b91e33b0bb502aae1162df6a9d1923d0029",
  "source": "pragma solidity ^0.5.8;\r\ncontract HelloWorld\r\n{\r\n        function SayHello() public returns (string memory)\r\n    {\r\n        return \"Hello World! My first contract\" ;\r\n    }\r\n\r\n}\r\n",
  "sourcePath": "E:/Blockchain/examples/hackathon/contracts/HelloWorld.sol",
  "compiler": {
    "name": "solc",
    "version": "0.5.8+commit.23d335f2.Emscripten.clang"
  },
  "schemaVersion": "3.0.11",
  "updatedAt": "2019-06-26T17:15:39.168Z",
  "devdoc": {
    "methods": {}
  },
  "userdoc": {
    "methods": {}
  }
}