{
  "contractName": "MyGame",
  "abi": [
    {
      "constant": false,
      "inputs": [
        {
          "name": "name",
          "type": "string"
        }
      ],
      "name": "ShowScore",
      "outputs": [
        {
          "name": "",
          "type": "uint256"
        }
      ],
      "payable": false,
      "stateMutability": "nonpayable",
      "type": "function"
    }
  ],
  "bytecode": "0x608060405234801561001057600080fd5b50610240806100206000396000f3fe608060405234801561001057600080fd5b506004361061002b5760003560e01c8063f06c5f0f14610030575b600080fd5b6100e96004803603602081101561004657600080fd5b810190808035906020019064010000000081111561006357600080fd5b82018360208201111561007557600080fd5b8035906020019184600183028401116401000000008311171561009757600080fd5b91908080601f016020809104026020016040519081016040528093929190818152602001838380828437600081840152601f19601f8201169050808301925050505050505091929192905050506100ff565b6040518082815260200191505060405180910390f35b60008073ed27042914b46ea48f1433fa026e3f67ab7408a290508073ffffffffffffffffffffffffffffffffffffffff1663308d1964846040518263ffffffff1660e01b81526004018080602001828103825283818151815260200191508051906020019080838360005b8381101561018557808201518184015260208101905061016a565b50505050905090810190601f1680156101b25780820380516001836020036101000a031916815260200191505b5092505050602060405180830381600087803b1580156101d157600080fd5b505af11580156101e5573d6000803e3d6000fd5b505050506040513d60208110156101fb57600080fd5b810190808051906020019092919050505091505091905056fea165627a7a7230582021f9d84f5c978c7092a7c8390a08b4deabd0a50dd900e1118ed37854a8e48fdf0029",
  "source": "pragma solidity ^0.5.8;\r\n\r\ncontract IScoreStore{\r\n    function GetScore(string memory name) public returns (uint);\r\n}\r\n\r\ncontract MyGame\r\n{\r\nfunction ShowScore(string memory name) public returns (uint)\r\n    {\r\n        IScoreStore scoreStore = IScoreStore(0xEd27042914B46ea48F1433FA026E3f67aB7408a2);\r\n        return scoreStore.GetScore(name);\r\n\r\n    }\r\n\r\n}\r\n",
  "sourcePath": "E:/Blockchain/examples/hackathon/contracts/MyGame.sol",
  "compiler": {
    "name": "solc",
    "version": "0.5.8+commit.23d335f2.Emscripten.clang"
  },
  "schemaVersion": "3.0.11",
  "updatedAt": "2019-06-26T17:15:39.343Z",
  "devdoc": {
    "methods": {}
  },
  "userdoc": {
    "methods": {}
  }
}